:020000040800F2
:10000000880D002021020008B9180008DD1500083D
:10001000B5160008B31000085520000800000000C5
:10002000000000000000000000000000231A00088B
:10003000811200080000000085190008C11E000898
:100040003B0200083B0200083B0200083B0200089C
:100050003B0200083B0200086913000881130008F6
:1000600099130008B5130008D11300083B020008DB
:100070003B0200083B0200083B0200083B0200086C
:100080003B0200083B0200083B0200083B0200085C
:100090003B0200083B0200083B020008ED13000889
:1000A0003B0200083B0200083B0200083B0200083C
:1000B0003B0200083B0200083B0200083B0200082C
:1000C0003B0200083B0200083B0200083B0200081C
:1000D0003B0200087D1F0008B11F00083B0200081A
:1000E0003B0200083B0200083B0200083B020008FC
:1000F0003B0200083B0200083B0200083B020008EC
:100100003B0200083B0200083B0200083B020008DB
:100110003B0200083B0200083B020008511F000898
:100120003B0200083B0200083B0200083B020008BB
:100130003B0200083B0200083B0200083B020008AB
:100140003B0200083B0200083B0200083B0200089B
:100150003B0200083B020008411200083B02000875
:100160003B0200083B0200083B0200083B0200087B
:100170003B0200083B0200083B0200083B0200086B
:1001800000F002F800F03CF80AA090E8000C82446D
:100190008344AAF10107DA4501D100F031F8AFF24A
:1001A000090EBAE80F0013F0010F18BFFB1A43F055
:1001B000010318477831000098310000103A24BF3D
:1001C00078C878C1FAD8520724BF30C830C144BFBC
:1001D00004680C60704700000023002400250026FE
:1001E000103A28BF78C1FBD8520728BF30C148BF9A
:1001F0000B6070471FB503F089F81FBD10B510BD27
:1002000000F0DBF81146FFF7F5FF02F039FA00F0D5
:10021000F9F803B4FFF7F2FF03BC01F0DBFF0000C5
:100220000948804709480047FEE7FEE7FEE7FEE78A
:10023000FEE7FEE7FEE7FEE7FEE7FEE704480549C6
:10024000054A064B70470000C51E000881010008E2
:1002500088070020880D00208809002088090020D8
:100260007047032A40F2308010F0030C00F0158034
:1002700011F8013BBCF1020F624498BF11F801CBA9
:1002800000F8013B38BF11F8013BA2F1040298BF0E
:1002900000F801CB38BF00F8013B11F0030300F078
:1002A0005A80083AC0F0088051F8043B083A51F8E7
:1002B00004CBA0E80810F5E7121D5CBF51F8043B21
:1002C00040F8043BAFF30080D20724BF11F8013B94
:1002D00011F801CB48BF11F8012B24BF00F8013BF6
:1002E00000F801CB48BF00F8012B704770477047FA
:1002F0007047A0E8004FF0C040F804DB01B5AFF351
:100300000080BDE8024001C10020A1EC068BA1ECF9
:1003100002BBA1EC06CBA1EC02FB704700F12C085C
:100320000C46B8EC068BB8EC02BBB8EC06CBB8ECCC
:1003300002FB00F12C0858F8040DAFF3008058F8C8
:10034000040D8546200008BF012038E9F00018E9B7
:10035000004F7047704710B5203AC0F00B80B1E8ED
:100360001850203AA0E81850B1E81850A0E81850EA
:10037000BFF4F5AF5FEA027C24BFB1E81850A0E8F3
:10038000185044BF18C918C0BDE810405FEA827C0D
:1003900024BF51F8043B40F8043B08BF7047D20724
:1003A00028BF31F8023B48BF11F8012B28BF20F8C5
:1003B000023B48BF00F8012B7047754600F02CF84F
:1003C000AE4605006946534620F00700854618B042
:1003D00020B5FFF733FFBDE820404FF000064FF097
:1003E00000074FF000084FF0000B21F00701AC466A
:1003F000ACE8C009ACE8C009ACE8C009ACE8C00989
:100400008D46704710B50446AFF300802046BDE826
:100410001040FFF7FEBE000000487047280700208C
:1004200010B501F019F810F0FF0F0AD100BF054810
:10043000817D41F003018175102101760249FF2081
:10044000087010BD0C0700200C000020014900209E
:10045000087070473400002070B50D4C0D4D069E9D
:10046000207868B901202070287007210A4802F01E
:10047000E4FB0A48FFF73DFF38B1094800683070D7
:10048000022020700021297070BD00F0C3FDF7E745
:100490003400002041000020004400408000002083
:1004A000000000200548817D21F0030181750021B5
:1004B00001760349FF200870704700000C070020F8
:1004C0000C0000200448817D21F00301817503495F
:1004D000FF200870704700000C0700200C0000206F
:1004E00001490020087070473C0000200849029A2A
:1004F0000B7843B90123000C0B70012801D00228AE
:1005000001D100BF00BF00201070087870470000C4
:100510003C000020134810B5807D00F00300012846
:100520001FD11148007808281BD2DFE800F004082A
:100530001A1A10140C18BDE8104000F0BBB8BDE842
:100540001040FFF7BFBFBDE81040FFF7ABBFBDE8ED
:10055000104000F031B9BDE81040FFF761BF00F076
:1005600017F910BD0C0700200C000020174810B52B
:1005700080886421484301F039FC0A2001F05EF9CB
:100580004FF4E13001F032F80A2001F021F900F0D7
:1005900079FE322000F09AFE00F064FF0021012075
:1005A00001F08DF90021022001F089F900210420D9
:1005B00001F085F90021052001F081F90448817DD1
:1005C00021F0030141F01001817510BD6A00002087
:1005D0000C0700202DE9F0411C4615460E46074643
:1005E00000F020F80C49C8600C49097811B10220CC
:1005F000BDE8F081381A01D4014600E04142084AC2
:10060000914201DD0120F3E723462A46314600F0FE
:1006100035F80020ECE7000024000020180000203E
:10062000A086010070B500F0C5FF0F4C6168451A47
:1006300000F088FFA168401A00EB454002F053FC2F
:100640009FED0A1B53EC112B02F078FC9FED091B68
:1006500053EC112B02F072FC02F016FC02F043FC8A
:10066000BDE8704002F010BC240000200000000033
:1006700000408F40000000000000E03E70B50446DE
:1006800015460E46184601F088F9304601F07BF910
:10069000284601F07DF9204601F0A2FB01F0B7F9F0
:1006A00001F0BAF9002001F09BFB01F0ABF900204A
:1006B00070BD000030B58BB000228DF80C202D4AA3
:1006C00014781369928A092C49D2DFE804F04805AE
:1006D000162748484837370003A80290ADF8042091
:1006E00000931622234904A8FFF7BBFD04AC94E84D
:1006F0000F00FFF7FBFE204920E003A80290ADF8B1
:100700000420009316221B4904A8FFF7AAFD04AC9D
:1007100094E80F00FFF7A0FE18490FE003A802902D
:10072000ADF8042000931622124904A8FFF799FDA2
:1007300004AC94E80F0000F05BF8114902280CD1DA
:1007400088479DF80C100F4871B1827D42F003027A
:10075000827501760C49FF2008700BB030BD062071
:100760008DF80C000949EBE7817D21F00301891C1C
:100770008175EFE720020020E10400084D04000825
:10078000E50700080C0700200C000020BB1800083B
:10079000012080F31388BFF34F8F05480168054A95
:1007A00001F4E06111430160BFF34F8FFEE70000E9
:1007B0000CED00E00400FA0510B500F050FE10F05A
:1007C000FF0F09D100BF0548817D21F00301891C7D
:1007D00081750349FF20087010BD00000C07002040
:1007E0000C000020014900200870704740000020E4
:1007F0002DE9F04F80462DED028B85B01646FE4860
:10080000129F007800283CD1FB4D01242C706C70A5
:100810000721FA4802F011FA00F008FDF848448177
:10082000A87828B900F0F6FB4FF4487001F038F8CA
:10083000B6B2DFF8D09341F288350A2E0BD00B2EDA
:1008400009D04FEA18400290C109C0B24FF0200B06
:1008500082461AD0EAE00A2E05D04624EA48FFF77D
:1008600048FD10B10EE0B424F8E74FF47A7329463E
:100870002A462046FFF702FF4FF47A61642001F018
:1008800011FC7CE0D9F8000078E02EB1052E03D0F1
:100890001E2E01D0282EDDD10146D7488172827AE2
:1008A0000A21521E92FBF1F181710024052E01D123
:1008B0006FF0BD04DFF84083002188F80C100120A0
:1008C00088F80D0098F806104FF4E87011FB00F05E
:1008D00002F020FB41EC180B98F80A00401E02F0D1
:1008E00002FB9FEDCA1B53EC112B02F027FB53ECCC
:1008F000182B02F021FA9FEDC71B53EC112B02F0CD
:100900001BFA02F0C1FADFF8F8820221282EA8F8BB
:100910000A1049D049F640434CF250325900404247
:10092000FFF758FE03210490A8F80A100020ADF844
:100930000000ADF8040000BF4FF4967001F066FCB3
:10094000BDF80400411CADF8041040F6B8318842EF
:100950007ED200F031FC00287BD100F045FCADF8E0
:100960000000BDF80000C007E6D00420A249A8F8A6
:100970000A0000204873049888B1082038709E4C03
:10098000022020700020607000F050FC9C4838214C
:100990004181207805B0BDEC028BBDE8F08F1420BA
:1009A00000F07EFF1E2EEAD0012000F0FBFF0128A0
:1009B00004D1022000F0F6FF01282AD09248FFF768
:1009C00098FC00287FF44EAF4FF47A770026CDE9EB
:1009D00000764CF2503A3A46904B5146284600F089
:1009E00083FBB8B3142000F05BFF0820A8F80A00CE
:1009F0006FF04F004646001B3B4629462A46FFF74C
:100A00003DFE09207081B900642001F04BFB0A20F3
:100A100094E2022001F0FAFB012000F0C3FF01285C
:100A200004D1022000F0BEFF012821D00298C0F3BB
:100A3000031003900F2876D0012E07D0042E05D086
:100A4000152E03D01F2E01D0292E98D16A4802E01E
:100A5000A1E0B7E042E080F80AA0817A1422491EA2
:100A600091FBF2F181714FF00008152E5CD060E02F
:100A7000142000F015FF0520A8F80A006FF04F00C1
:100A80004646001B4FF47A7329462A46FFF7F6FDC7
:100A9000062070810024ADF80040ADF804404FF40A
:100AA0009678404601F0B2FBBDF80400411CADF859
:100AB0000410A84204D3022038704F4884705EE7C7
:100AC00000F07AFB00287DD100F08EFBADF800002D
:100AD000BDF80000C007E4D007202FE24FF4FA6011
:100AE000CDE900063E463A4633465146284600F0D8
:100AF000FBFA002867D0142000F0D2FE0B20A8F8E3
:100B00000A006FF04F004746001B334629462A462D
:100B1000FFF7B4FD0C2078814FF47A61642001F076
:100B2000C1FA0D2053E2B2E0817A4FF00108491E6C
:100B300081723148012101734173817A8279491EA2
:100B4000C1EB4111C1EB011102EB4200C0EBC2103D
:100B500001EB80002A4C0E210A306181292E3DD004
:100B600049F640434CF2503259004042FFF732FD03
:100B700004900F2060810020ADF80000ADF8040063
:100B80004FF4967001F042FBBDF80400411CADF833
:100B90000410A84205D3022017493870002088703D
:100BA000EDE600F009FB00288DD100F01DFBADF84B
:100BB0000000BDF80000C007E2D0102060810020D6
:100BC0000D4901E061E178E14873049800287FF461
:100BD000D4AE142000F064FE1F2EE1D0022000F0FD
:100BE000E1FE012803D100F0DDFE012840D00648D7
:100BF000FFF77FFB002813E0400000200044004086
:100C0000FE0600200000002080000020CDCCCCCCCF
:100C1000CC2C8D400000000000003E400CFEFFFF89
:100C20007FF420AE4FF47A774FF0010ACDE9007AD5
:100C30003A46EB4B4CF25031284600F055FA00286A
:100C40007ED0B8F1000F10D01B2060813B462946B2
:100C50002A466FF4E870FFF711FD1C206081B9008F
:100C6000642001F01FFA1D206081042E7AD08AE0F2
:100C7000022001F0CBFA022000F094FE012803D1FB
:100C800000F090FE01282BD003980F2888D1D54C76
:100C9000CAF10000E072E07AE070012060734FF06A
:100CA000000A84F807A0DFF840832D204646A8F804
:100CB0000A00CE48E17A49F640434CF2503250F8EF
:100CC00021005900FFF786FC04902E207081ADF8BA
:100CD00000A0ADF804A00026E07901287ED0C8E08D
:100CE000B8F1000F12D0112060814FF47A732946B9
:100CF0002A466FF4E870FFF7C1FC122060814FF4C0
:100D00007A61642001F0CEF913206081042E11D1A4
:100D1000142060814FF47A7329462A466620FFF733
:100D2000ADFC152060814FF47A61642001F0BAF9BE
:100D300016206081142000F0B3FD1720608101E0CF
:100D400035E00FE04FF47A7329462A462320FFF757
:100D500095FC182060814FF47A61642001F0A2F9BB
:100D600019206FE01E2060813B4629462A466620F6
:100D7000FFF784FC1F2060814FF47A61642001F04A
:100D800091F9A4F80AB0142000F08AFD21206081B6
:100D90003B4629462A462320FFF770FC222060812B
:100DA0004FF47A61642001F07DF923204AE04FF48A
:100DB000FA60CDE9000A4FF416733A464CF250310E
:100DC000284600F091F9002877D0B8F1000F13D031
:100DD000242060813B4629462A4600E034E06FF437
:100DE000E870FFF74BFC252060814FF47A616420A6
:100DF00001F058F926206081042E10D1272060814F
:100E00003B4629462A466620FFF738FC28206081A9
:100E10004FF47A61642001F045F9292060811420A3
:100E200000F03EFD2A2060813B4629462A462320C9
:100E3000FFF724FC2B2060814FF47A61642001F0DD
:100E400031F92C2060819AE5694800682169C1EB7D
:100E500050000F280DD384F807A0042000F0A2FD55
:100E6000217A884205D160790028207912D0401E6D
:100E700020715F480168C6EB5101B1F5967F1DD323
:100E80000068460800F098F930B100F00DF987F8D5
:100E900000B074E5401CEBE700F0A6F9ADF80000E7
:100EA000BDF80400411CADF80410B0F57A6F05D30D
:100EB0000220387084F802A061E58AE0BDF80000E5
:100EC000C0073FF409AF564684F80DA004980028E7
:100ED0007FF453AD642000F0E3FC042000F062FDD9
:100EE000DFF800A101280AF1180A29D04148FFF7CC
:100EF00000FA00287FF4B6AC4FF47A77CDE900769B
:100F00003A463D4B4CF25031284600F0EDF8C0B364
:100F1000142000F0C5FC3220A8F80A00E17A464609
:100F20003B463AF9110029462A46FFF7A7FB332032
:100F30007081B900642001F0B5F8342070811EE59D
:100F4000022001F063F9042000F02CFD0128A0D15B
:100F5000142000F0A5FC2F20A8F80A00E17A4646EC
:100F60004FF47A733AF9110029462A46FFF786FBB7
:100F7000302070814FF47A61642001F093F83120C1
:100F8000DCE7FFE74FF4FA60CDE900064FF47A6B37
:100F90005B463E463A464CF25031284600F0A4F8F3
:100FA000B8B1142000F07CFC3520A8F80A00E17AE2
:100FB000474633463AF9110029462A46FFF75EFBB9
:100FC000362078815946642001F06CF8372078810A
:100FD000D5E40420C9F8000001210648FFF79EF976
:100FE000D4FEFFFF40000020FE060020183300085A
:100FF000240C00408000002030F8FFFF72B6044946
:10100000486842688A60006880F3088810470000DA
:101010000C00002008B51A48009044F62063194AD5
:1010200043F69821002001F063F84FF4FA7001F0C4
:10103000EDF81548009041424FF4FA634CF25032FB
:10104000012001F055F8052000F0ACFC80B100F063
:1010500079FA0E49086000F0ADFA0D4908600D49B3
:10106000012008700C49002008700C49087008BD68
:101070000B490520086001210A48FFF74FF90000DD
:10108000E0220200F049020078ECFFFF2C00002073
:1010900028000020420000204300002044000020DF
:1010A0000000002080000020012140F2853000F087
:1010B000FBBDFEE770B505464FF6FF7000224AF211
:1010C00001040DE0AB5C58400823C6074FEA50000E
:1010D00000D060405B1E13F0FF03F6D1521C92B2A9
:1010E0008A42EFD370BD00002DE9F0415FEA030CA6
:1010F000DDE9067802D54FF0FF3300E001231A2422
:1011000044EA0323284C01266381284CA67300255A
:10111000657213460A4601466046FFF7AFFA244956
:10112000086843082348627A9AB194F80BC0BCF16E
:10113000000F08D0D0F81422012A15D007E000BF14
:10114000D0F80C22F8E7D0F80822012AF8D065720E
:10115000A6730A68C3EB5202BA42E4D9FFF7A4FFB0
:10116000A5730020BDE8F0810A68D4F814C0CCEB68
:101170005202022AEDD3FFF797FFA573642001F016
:1011800045F8E07A28B1042000F00CFC012802D0D8
:10119000A5700120E6E760790028207902D0401E82
:1011A0002071F6E7401CFBE7FE060020400000200F
:1011B000240C00400000414210B50A4CD4F8200233
:1011C00018B9D4F8240200280AD0032001F01EF830
:1011D000D4F8200218B9D4F82402002800D0012045
:1011E00010BD00000000414210B5074C012001462F
:1011F0006070064A40F28B3000F0FEFC60780028F8
:10120000FDD1A07810BD00001800002011120008C8
:10121000044A002353700979917001430248818187
:101220007047000018000020FE060020034800213F
:10123000C172417241738173704700004000002009
:1012400010B50D4C20220721204601F09EF8002801
:1012500010D020220721204601F07CF8202207210F
:10126000204601F04DF8054900200870BDE8104007
:1012700000F0DEBA10BD000000640240060000204D
:10128000FEE700001FB541F2030001F0CBFA4AF27D
:101290000F40ADF800000020411EADF804000A4CDC
:1012A000ADF802000291ADF806008DF80C00694619
:1012B000204601F0CFFB0121204601F015FC20461D
:1012C00001F0C3FB1FBD0000000C00401FB5044629
:1012D00041F2111001F0A6FA00214AF20F40ADF8D8
:1012E0000000481E00EB8400ADF804100E4CADF871
:1012F00002100290ADF806108DF80C1069462046D9
:1013000001F0A8FB0121204601F0F2FB012120465B
:1013100001F0EAFB03220121192001F0C3F9204664
:1013200001F093FB1FBD0000004401402DE9F04196
:101330000B4C0546D4F8200201260A4F012803D0A1
:10134000D4F82402012809D1012000F05FFF012D0B
:1013500004D1D4F82002012800D13E70BDE8F0810C
:10136000000041422400002010B5012001F0C6F821
:10137000002804D0BDE81040012001F0B9B810BD2C
:1013800010B5022001F0BAF8002804D0BDE81040E2
:10139000022001F0ADB810BD10B5042001F0AEF888
:1013A000002806D000F03EFBBDE81040042001F00C
:1013B0009FB810BD10B5082001F0A0F8002806D095
:1013C00000F06AFBBDE81040082001F091B810BDA4
:1013D00010B5102001F092F8002806D000F096FB1E
:1013E000BDE81040102001F083B810BD10B52020DA
:1013F00001F0C8F820B100F0B1FB202001F0BCF8EA
:10140000402001F0BFF810B1402001F0B5F8802075
:1014100001F0B8F820B100F0CBFB802001F0ACF86F
:101420004FF48074204601F0ADF828B10120FFF799
:101430007DFF204601F0A0F84FF40074204601F033
:10144000A1F8002807D00020FFF770FF2046BDE874
:10145000104001F091B810BD4FF0FF3070474FF0D1
:10146000FF3070472DE9F04140F60244204601F07C
:10147000D9F9324D002204231146284601F0BEF866
:10148000204601F0CFF9002208231146284601F03A
:10149000B5F8204601F0C6F900221023114628466F
:1014A00001F0ACF8204601F0BDF9002220231146DE
:1014B000284601F0A3F8204601F0B4F90022802369
:1014C0001146284601F09AF8204601F0ABF90022B7
:1014D000AB151146284601F091F8204601F0A2F91B
:1014E00000226B151146284601F088F8661C30462C
:1014F00001F098F9124F002240231146384601F0BE
:101500007DF8304601F08EF900220123114638465D
:1015100001F074F8304601F085F9002202231146EB
:10152000384601F06BF8204601F07CF92846BDE80A
:10153000F0413C230222002101F060B80008024083
:10154000000C024010B5074C0120074A60700020D3
:1015500020700221662000F04FFB60780028FDD14A
:10156000606810BD180000206D150008074A0023B0
:1015700053701070B1F80500CB7840BA00040979B7
:1015800040EA032008435060704700001800002024
:10159000074A002353701070B1F80500CB7840BAA9
:1015A0000004097940EA0320084390607047000076
:1015B0001800002010B5074C0120074A6070002079
:1015C00020700221682000F017FB60780028FDD110
:1015D000A06810BD1800002091150008FEE700006B
:1015E00001490220087070476200002070B504466F
:1015F0004FF4406001F016F941F2110001F012F9C8
:101600002A4D042301220221284600F0F7FF04237B
:1016100002220021284601F013F80422072128465F
:1016200000F0BAFF082301220221284600F0E6FF5D
:10163000082302220021284601F002F8082207218F
:10164000284600F0A9FF1A4D284601F0A9FA2146C4
:10165000284601F05BFA0021284601F065FB0021D5
:10166000284601F053FB0021284601F041FB0021F0
:10167000284601F008FB0021284601F0FAFA04216F
:10168000284601F03DFB0821284601F047FB28468B
:1016900001F0CEFA40F20531284601F0FEFABDE82D
:1016A000704003221146262000F0FCBF00000240DB
:1016B00000440040FEE7000070B5134C2178134B46
:1016C000134A99B1217801291CD161880B44491C26
:1016D000618018706088B0F5806F01D30020608051
:1016E000BDE870400021104601F042B91870012594
:1016F000658000211646104601F03AF9304601F0A7
:10170000A4F9257070BD000066000020FE020020D4
:101710000010004070B5134C2178134B134A052973
:1017200013D0217801291CD161880B44491C6180A8
:1017300018706088B0F5806F13D300206080BDE81A
:1017400070400146104601F013B9187001256580FC
:101750001646104601F079F90021304601F008F9EB
:10176000257070BD62000020360200200014004089
:101770002DE9F0411646884607460025134C0BE03C
:10178000795D204601F008FA0721204601F066FA4B
:101790000128F9D16D1CEDB2B542F1D34146204686
:1017A00001F0FAF90721204601F058FA0128F9D191
:1017B0004FEA1821204601F0EFF90721204601F0F9
:1017C0004DFA0128F9D1BDE8F08100000044004045
:1017D0001FB5044641F2050001F024F800214AF249
:1017E0000F40ADF80000481E00EB4400ADF80410B7
:1017F0000E4CADF802100290ADF806108DF80C10EA
:101800006946204601F026F90121204601F070F9D1
:101810000121204601F068F901221146372000F02D
:1018200041FF204601F00CF91FBD000000140040EC
:101830000149002008707047660000207FB504460B
:1018400041F2040000F0EEFF144D284601F092F83A
:1018500000214AF20F40ADF80000481EADF8041018
:1018600000EB4400ADF802100290ADF806108DF8C0
:101870000C106946284601F0EDF80121284601F0D8
:1018800037F90121284601F02FF9022201213620E3
:1018900000F008FF284601F0D3F87FBD001000409B
:1018A000044A116849081368C1EB53038342FAD311
:1018B00070470000240C0040FEE700BF704770B581
:1018C0000546002401B1012441F20E1000F0AAFFE8
:1018D000082D56D2DFE805F05504111E2B333B448A
:1018E0000221084600F0CEFF22460021042000F02D
:1018F0000FFE0222002108203FE00321022000F019
:10190000C1FF22460021082000F002FE0222002131
:10191000092032E00421022000F0B4FF2246002119
:10192000102000F0F5FD022200210A2025E005210B
:10193000022000F0A7FF00212246202018E0072106
:10194000022000F09FFF00212246802010E00821A5
:10195000022000F097FF224600214FF4807007E03C
:101960000921022000F08EFF224600214FF4007072
:1019700000F0CEFD022200211720BDE8704000F0EB
:1019800091BE70BDFEE7014640F2923000F0D4B93E
:1019900001464FF4657000F0CFB901464FF4637013
:1019A00000F0CAB9034610B500201449144A0B2BA5
:1019B00022D2DFE803F02106090C0F1215181B1BB9
:1019C0001E00D1F8080216E0D1F80C0213E0D1F89D
:1019D000100210E0D1F814020DE0D1F81C020AE068
:1019E000D1F8200207E0D1F8240204E0D2F8000286
:1019F00001E0D2F80402C0B210BD00000000414274
:101A000000804142002140F2853000F04DB90021B4
:101A100040F2853000F048B9012140F2853000F0F5
:101A200043B9FEE72DE9F041194C207801282DD16A
:101A3000A07B00282AD0E07A002827D10A2000F0D5
:101A4000FFFB207B0025134F012670B90120FFF713
:101A5000A9FF012809D10220FFF7A4FF012804D122
:101A60006672386840086061A573207B01280DD13B
:101A70000220FFF797FF012808D1FFF793FF012805
:101A800004D16672386840086061A573BDE8F081D2
:101A900040000020240C00402DE9F041194C207832
:101AA00001282CD1A07B002829D0E07A002826D15B
:101AB0000A2000F0C5FB207B0025134F012668B9E2
:101AC0000220FFF76FFF012808D1FFF76BFF012805
:101AD00004D16672386840086061A573207B0128D4
:101AE0000DD10220FFF75EFF012808D1FFF75AFF52
:101AF000012804D16672386840086061A573BDE8AA
:101B0000F081000040000020240C004010B5114C72
:101B1000207801281CD1A07B002819D0E07A002869
:101B200016D10A2000F08CFB207B012810D1032065
:101B3000FFF738FF01280BD10220FFF733FF012800
:101B400006D1607204480068400860610020A073FC
:101B500010BD000040000020240C004010B5124CC5
:101B6000207801281ED1E07A00281BD00A2000F03E
:101B700067FB0420FFF716FF217A884212D1627BAF
:101B80000A4801212AB1E2791AB9E17102685208C2
:101B90002261A27B002A05D0617200684008606162
:101BA0000020A07310BD000040000020240C004065
:101BB0000D4810B50078012814D10C4C607801282C
:101BC00010D1A07800280DD10A2000F039FB084878
:101BD000D0F81C02012805D1064800684008606062
:101BE0000120A07010BD0000410000203400002042
:101BF00000004142240C00402DE9FC41264C1546D2
:101C00002278002A45D104222270244A0326127821
:101C10008DF800208DF80160020A8DF802208DF801
:101C20000300080A8DF804008DF8051006216846A7
:101C3000FFF740FA014606226846FFF799FD0520A6
:101C400020701748016840F6B832490800270AE0BA
:101C50000368C1EB5303934205D9CDB1267000222E
:101C600011460B200BE02378022BF1D10D48407870
:101C7000000606D565B12670002211460420A8474B
:101C800006E02DB12670628806490020A84727701B
:101C90002770BDE8FC8100006200002004000020E5
:101CA000240C0040360200207CB51F4C22780AB17B
:101CB00007207CBD042222701C4A12788DF8002077
:101CC00006228DF80120020A8DF802208DF803000B
:101CD000080A8DF804008DF8051006216846FFF704
:101CE000E9F9014606226846FFF742FD052020700B
:101CF0000F49086840F6B8334208002007E00D6835
:101D0000C2EB55059D4202D920700B207CBD257881
:101D1000022DF4D1074949782070090601D5042025
:101D20007CBD00207CBD000062000020040000207B
:101D3000240C0040360200203EB5254C22780AB122
:101D400007203EBD04222270224B00251B788DF80F
:101D5000003010238DF80130030A8DF802308DF821
:101D600003008DF8045002208DF805008DF8062040
:101D7000080A8DF807008DF80810080E8DF8090084
:101D8000080C8DF80A000B216846FFF793F901460D
:101D90000B226846FFF7ECFC052020700E48016816
:101DA00040F6B832490807E00368C1EB5303934299
:101DB00002D925700B203EBD2378022BF4D10748B1
:101DC00040782570000601D504203EBD00203EBDB0
:101DD0006200002004000020240C00403602002095
:101DE000014640F28630FFF7A7BF000070B50446F9
:101DF0004FF4406000F016FD41F2041000F012FDB7
:101E00002D4E4FF400752B4601220221304600F082
:101E1000F5FB2B4603220021304600F011FC2A4638
:101E20000721304600F0B8FB6D002B46012202214D
:101E3000304600F0E3FB2B4603220021304600F041
:101E4000FFFB2A460721304600F0A6FB1B4D284623
:101E500000F0A6FE2146284600F058FE0021284644
:101E600000F062FF0021284600F050FF00212846C4
:101E700000F03EFF0021284600F005FF0021284623
:101E800000F0F7FE0421284600F03AFF082128461A
:101E900000F044FF284600F0CBFE40F20531284612
:101EA00000F0FBFE00221146252000F0FBFBBDE800
:101EB000704000F097B800000000024000100140A0
:101EC000704700001E4818B4016841F470010160B9
:101ED0001C49086840F00100086008688007FCD5CC
:101EE00018480830026842F0800202600022009226
:101EF000009B5B1C0093502BFAD3036843F09003C4
:101F000003600092009B5B1C0093502BFAD3036884
:101F100023F0030303600B680B4C23400B600B683A
:101F200023F480230B600260006806490748091DFE
:101F3000086004480C30026018BC00F0C5BC00000A
:101F400088ED00E000380240FFFFF6FE103000246C
:101F500010B5094C0121204600F0CDFD01280AD121
:101F6000FFF73EFB204600F06BFD2046BDE8104029
:101F7000012100F0BDBD10BD0014004070B50A4D38
:101F80000A4C2946204600F09CFE00280BD029462A
:101F9000204600F08CFE204600F0FAFDBDE87040BF
:101FA000C0B2FFF789BB70BD0503050000100140FA
:101FB00070B50A4D0A4C2946204600F082FE0028E2
:101FC0000BD02946204600F072FE204600F0E0FDCE
:101FD000BDE87040C0B2FFF79DBB70BD05030500B2
:101FE0000044004010B58AB040F6164000F01AFCDC
:101FF000154C0721204600F057F914480122CDE97D
:10200000000200211248CDE902014020CDE904126E
:10201000CDE906014FF4403008906A46072120467A
:1020200000F024FA09488021001F00F0F7FD10227B
:102030000721204600F07FF900221146462000F0DB
:1020400031FB0AB010BD00000064024004100140E2
:1020500020010020FEE700002DE9F0410F4E0D4663
:1020600007460024384600F0D1F82046641CA4B28C
:10207000A84201D3022005E0FFF79EF838B1FFF730
:1020800013F82020306001210548FEF747F9FFF7DB
:10209000ABF8C007E6D0BDE8F081000000000020EA
:1020A000800000202DE9F0410F4F0E46002400F182
:1020B0006405A8B200F0AAF82046641CA4B2B0429D
:1020C00001D3022005E0FFF777F838B1FEF7ECFF07
:1020D0002020386001210548FEF720F9FFF784F839
:1020E000C007E6D0BDE8F08100000020800000209D
:1020F0002DE9F05F994692468B460520DDF8288051
:10210000FFF750FC002850D12B4C012060700025B7
:10211000A5702A4E30684B464708524659464046FD
:10212000FEF7ACFA2648DFF89C804FF4FA6926499E
:1021300044F620623BE0A37823B1D1F81C32012B96
:102140001CD0A5703368C7EB530393422FD90721E6
:1021500000F073FD88F80050FEF7A6FF642000F041
:1021600055F84946C820FFF777FFA57065701749F5
:102170000520086001211648FEF7D0F83368D4F82E
:1021800004C0CCEB5303042BDCD9072100F055FD30
:1021900088F80050FEF788FF642000F037F84946C1
:1021A000C820FFF759FFA5706570BDE8F09F637800
:1021B000002BC0D1F9E7000034000020240C0040BF
:1021C0000044004062000020000041420000002066
:1021D00080000020704700004FF0E0210A6922F0E3
:1021E00001020A610A6922F004020A610649C00874
:1021F00000EB40020870C2EBC0104FF6FF7202EA1B
:10220000C0004880704700000800002070B54FF4FF
:102210000775B0FBF5F1CCB2B0FBF5F105FB11068B
:1022200004E0284600F026F8641EE4B2002CF8D141
:10223000002E04D03046BDE8704000F01BB870BDE1
:102240000B49097848434FF0E021486100228A6138
:10225000086940F0010008610869C30701D0C003A4
:10226000FAD5086920F0010008618A617047000012
:10227000080000200B49498848434FF0E02148619D
:1022800000228A61086940F0010008610869C307FB
:1022900001D0C003FAD5086920F0010008618A6105
:1022A000704700000800002001EB410200EBC20271
:1022B000136923F0010313610023136153619361D8
:1022C000D3611362212353623D2204290BD201EB17
:1022D00041035B00C1F3400103EB81018A40816847
:1022E0000A4382607047091F01EB41035B00C1F3A1
:1022F000400103EB81018A40C1680A43C260704714
:1023000004290BD201EB41035B00C1F3400103EB55
:1023100081018A4081680A4382607047091F01EB8E
:1023200041035B00C1F3400103EB81018A40C168B6
:102330000A43C260704701EB410100EBC100802AF3
:1023400003D00169114301617047416A41F0800186
:102350004162704704290BD201EB41035B00C1F3DA
:10236000400103EB81018A4081680A438260704723
:10237000091F01EB41035B00C1F3400103EB810145
:102380008A40C1680A43C260704730B501EB41031F
:1023900000EBC305042929D201EB41035B00C1F323
:1023A000400103EB810102FA01F4082A12D004DC97
:1023B000012A07D0042A56D108E0102A0ED0202A7C
:1023C00051D10FE0006804EA000229E0006804EA45
:1023D00000022CE0006804EA00022FE0006804EA32
:1023E000000232E0006804EA000235E0091F01EB58
:1023F00041035B00C1F3400103EB810102FA01F3E9
:10240000082A18D004DC012A07D0042A2BD10BE0BB
:10241000102A17D0202A26D11BE0406803EA0002C8
:10242000686A00F080001AE0406803EA0002286948
:1024300000F0020013E0406803EA0002286900F09F
:1024400004000CE0406803EA0002286900F008007C
:1024500005E0406803EA0002286900F0100012B1AC
:1024600008B1012030BD002030BD000030B501EBC7
:10247000410100EBC100416A21F004014162116891
:1024800081619168C161D169416103691749156A28
:102490000B4011690C462943956945EA84042143A0
:1024A000194301615168A1B10129016915D041F4B5
:1024B00000410161D1680029016911D021F48061D6
:1024C00001615169002901690DD021F48071016118
:1024D00030BD016941F40071EBE721F40071E8E7D8
:1024E00041F48061ECE741F48071F0E73F87FCFF45
:1024F0000149086070470000143C01400349096825
:10250000014201D00120704700207047143C014077
:10251000F0B5184D2B6883432B602E1D3368834321
:102520003360331D1C6884431C601C1D276887436F
:10253000276011B1012907D103E02968014329600F
:1025400002E031680143316052B1012A0ED0022A03
:1025500005D1196801431960216801432160F0BD6C
:1025600019680143196021688143F7E719688143BD
:10257000F1E70000003C014001490860704700009D
:10258000143C014003490968014201D00120704711
:1025900000207047143C0140F0B5036A446A0025EE
:1025A00001260F2706FA05FC1CEA020F09D04FEAA4
:1025B000850C07FA0CFE23EA0E0301FA0CFE4EEA24
:1025C00003036D1CADB2082DECD3082506FA05FCFB
:1025D0001CEA020F0BD04FEA850CACF1200C07FA75
:1025E0000CFE24EA0E0401FA0CFE4EEA04046D1CF3
:1025F000ADB2102DEAD303624462F0BD2DE9F0477D
:10260000894601689246C268002401274FF0030CF6
:1026100007FA04F51D420BD066000CFA06F5A94333
:10262000AA4309FA06F80AFA06F548EA01012A431C
:10263000641CA4B2102CEBD30160C260BDE8F0872B
:10264000F0B50129416819D099434160816800249F
:1026500001274FF0030C00BF07FA04F61E4207D013
:1026600066000CFA06F521EA050502FA06F129438F
:10267000641CA4B2102CEFD38160F0BD1943E4E7D1
:10268000FFF720FCFDF772FFA820FFF7A5FD044C23
:10269000FDF740FF20780028FAD0FEF7AFFCF7E7FF
:1026A00005000020F0B5234B0646002518680F46AC
:1026B0002C46C0F3022007281AD01868C0F3022065
:1026C000062817D01868C0F3022005280DD0186816
:1026D000C0F30220042810D01868C0F30220032899
:1026E0000ED04FF4A06000F027F802252C4608E039
:1026F000042406E00125032403E00325012400E06F
:102700000425C5F104008740C4F104010F20C8402E
:102710001040384306F1E021000181F8000406F082
:102720001F01012088407109890001F1E021C1F8F1
:102730000001F0BD0CED00E00249084302490860C9
:10274000704700000000FA050CED00E0F0B52EA582
:1027500088B02ECD8DE82E002CA22F4BD2E900128E
:10276000CDE9041229A20446D2E90012CDE90612ED
:1027700019680020C1F38105284905B3284A012DB5
:1027800002D0022D1BD101E0114618E0224D2D1F71
:102790002E6806F03F0C2E68C6F388172E682D6849
:1027A000C6F30146761C760005F48005B5F5800F6A
:1027B00000D11146B1FBFCF17943B1FBF6F11A6887
:1027C000C2F303121DF8025021FA05F21D6804AE8F
:1027D000C5F382251B68755D22FA05F5C3F3423304
:1027E00006AEF35C22FA03F344B1012C08D0022CAC
:1027F00008D0032C00D1184608B0F0BD0846FBE70E
:102800001046F9E72846F7E7000000000000000046
:102810000102030406070809083802400024F400F6
:1028200040787D01064901EB9011D1F8002800F0B5
:102830001F03012098400243C1F8002870470000A0
:1028400000300240064901EB9011D1F8002800F059
:102850001F03012098408243C1F800287047000000
:1028600000300240064901EB9011D1F8002800F039
:102870001F03012098400243C1F800287047000060
:10288000003002408A07130F0F229A40D24398402B
:1028900089080DD001290ED002290FD0032906D1B5
:1028A00008490B6813400B600A6802430A607047CE
:1028B00004490C39F5E703490839F2E70149091FD2
:1028C000EFE7000014380140264810B502680021E7
:1028D00042F4803202604FF6FF730268491C12F422
:1028E000003F01D19942F8D101688903FCD51D4907
:1028F00040310A6842F080520A601B490A6842F47B
:1029000040420A60174A083213681360136843F4A0
:1029100000431360136843F4A0531360141F134B58
:102920002360036843F08073036003689B01FCD558
:10293000086840F4803008604868C003FCD5086827
:1029400040F40030086048688003FCD5106820F02F
:1029500003001060106840F002001060106800076B
:10296000FCD510BD003802400070004019544007EB
:10297000416270472F4B10B5C11A1A1598424AD0C0
:102980001CDC2D4B4FF40064A0EB0301984233D0C4
:102990000ADCB0F1804F43D02849401829D090423A
:1029A00046D140F602043BE0914228D0A14229D012
:1029B000B1F5406F3CD140F6060431E0B1F5923FED
:1029C00023D00ADC914229D0B1F5644F0ED0B1F585
:1029D000684F2DD140F6011422E0B1F5943F17D095
:1029E000B1F5963F24D140F6121419E04FF410646B
:1029F00016E040F6010413E040F6030410E040F650
:102A000004040DE040F605040AE04FF4116407E009
:102A100040F6111404E040F6070401E040F6080413
:102A20002046FFF71FFF2046BDE81040FFF70ABF12
:102A300010BD0000001C0040000C004000FCFFBF67
:102A4000016821F0010101607047016841F0010156
:102A50000160704730B50A8882621C4A1C4B904264
:102A60000DD0B0F1804F0AD01A4CA04207D01A4CBA
:102A7000A04204D0194CA04201D098420BD1046866
:102A800024F07004046004684D882C4304600468DA
:102A90008D882C4304608C68C462114CA0420CD019
:102AA000104CA0420DD0046824F440740460046803
:102AB000CD882C430460904201D0984201D1097B1B
:102AC0000163416941F00101416130BD00000140F5
:102AD000000401400004004000080040000C0040D9
:102AE0000010004000140040C2680A43C2607047F2
:102AF000C94301617047C26800690A40084202D0B8
:102B00000AB10120704700207047000070B51E4BCD
:102B100004460D460020E11A1A159C4227D00BDC12
:102B20001A49611823D0914221D0B1F5006F1ED00F
:102B3000B1F5406F0CD11AE0914218D0B1F5184FA1
:102B400002D0B1F51C4F03D15FF00300FFF7FEFD8B
:102B5000E1684FF6F07209040BD5400000EB550018
:102B6000B0FBF5F101EA0200C1F3420109E00220E5
:102B7000ECE700EB5500B0FBF5F101EA020001F0D3
:102B80000F010843A06070BD0078004000BCFFBF8B
:102B90004068C0F308007047C1F308014160704706
:102BA0001C4B10B5C21A1915984225D00DDC1A4AD3
:102BB000801818D0884219D0B0F5006F19D0B0F540
:102BC000406F26D140F614041BE08A4217D0B2F5BC
:102BD000184F05D0B2F51C4F1BD140F6051410E07C
:102BE00040F604140DE040F611040AE040F6120429
:102BF00007E040F6130404E040F61E0401E040F64E
:102C00001F042046FFF72EFE2046BDE81040FFF7C8
:102C100019BE10BD0078004000BCFFBF426922F021
:102C200080024261426901F080010A4342617047BB
:102C3000C16841F40051C160704710B501F01F0335
:102C400001229A40A1F5405400EB9110083C02D0BB
:102C5000D143016010BD01689143FAE700EB911088
:102C6000006801F01F0201219140084000D00120BE
:102C70007047426922F400724261426901F40071B6
:102C80000A4342617047426922F48072426142699C
:102C900001F480710A434261704700EB91100268B1
:102CA00001F01F03012199400A430260704700EBC5
:102CB00091500268C1F30443012199408A430260A4
:102CC000704710B5C1F38912835800EB915001F0A1
:102CD0001F04012202FA04F400682340C1F30441F6
:102CE0008A40104202D00BB1012010BD002010BD5F
:102CF000C26822F4C062C260C2680A43C260704700
:102D0000C26822F004020A43C2607047026922F4DA
:102D10004052026102690A4302617047C26822F0B0
:102D200008020A43C2607047C26822F48052C2603F
:102D3000C2680A43C260704710B591EA030F48BFEA
:102D400083F0004300F10082841A71EB030C05D27A
:102D5000121943EB0C03001B61EB0C01DFF824E1BB
:102D60004FEA1154A4EB135C1EEA430F18BF9EEA0E
:102D7000445F73D023EA0E03DCF1200E21EA0451F4
:102D800043F4801332D322FA0CFE10EB0E0023FA28
:102D90000CFE41EB0E01CCF1200E03FA0EFE10EBFF
:102DA0000E0051F10001B1F5801FCCF1200E32D29E
:102DB00001EB045112FA0EF2BDE8104058BF704703
:102DC000401C38BF5FEA420218BF7047002814BF9A
:102DD00020F0010041F100014FEA410313F5001F0B
:102DE00038BF7047A1F1C04100F0A0B9012A43EB00
:102DF0000302ACF1200CDCF11F0E32BF4FF0000ECD
:102E000023FA0CF310EB030041EB0451B4EB115F18
:102E1000D0D0A1EB045101F5801149085FEA3000E0
:102E200001EB04510ED350F1000038BF12FA0EFE30
:102E300008D1BDE81040C9E7401C38BF5FEA420234
:102E4000CAD1C3E7BDE810404FEA410313F5001FA4
:102E500038BF7047A1F1C04100F068B99EEA445FF5
:102E600008D011EA5E0FBDE8104004BF01F0004138
:102E700000207047BDE8104070B500F009F900BFB0
:102E800064FBBE3E0000E0FF4FEA41034FEA5353AC
:102E9000A3F58063D3F11E03C8BFD3F1210C0CDD71
:102EA0004FF0004242EAC12242EA505232FA03FC99
:102EB0008CEAE17CACEBE1707047102BC4BF0020C2
:102EC000704703F5787CBCF1FF3F04D06FF00042FF
:102ED00082EA2100704770B500F0DAF84992248048
:102EE00000207047F2E710F0004248BF4042B0FABD
:102EF00080F310FA03F10AD0C3F11D0303F58063D8
:102F00004FEA415002EB035202EBD12170474FF0E0
:102F100000007047B0FA80F310FA03F10AD0C3F151
:102F20001D0303F580634FEA41504FEA035202EB61
:102F3000D12170474FF0000070470000DFF848C112
:102F400070B51CEA111E1EBF1CEA13159EEA0C0F79
:102F500095EA0C0F00F06F8081EA030423EA4C131A
:102F60004EEAD47E21EA4C1141F4801143F48013DF
:102F7000AE44A1FB024CA0FB0365AEF17F7E361987
:102F800055EB0C05A1FB034C4CF10003A0FB021C0C
:102F900016EB0C06654153F10003094218BF46F0D9
:102FA000010613F4007F0BD14FEA03314FEA0530DD
:102FB000340341EA155140EA16506FF003020AE06B
:102FC0004FEAC3214FEAC520F40241EA555140EAD5
:102FD00056506FF0020202EB2E4201EB025585EAD9
:102FE000CE710AD05FEA440C18BF24F0004450F1BF
:102FF000000041F1000120EAD47040F2FE7C6245FD
:1030000000D270BDA84214BF4FF080444FF040443E
:10301000002E08BF0024BEF1806FA8BFA1F1C041FF
:10302000BDE8704080F282804FF0000001F1C041A5
:1030300001F0004170479EEA0C0F0CEA131518BF0F
:1030400095EA0C0F06D04FF0000081EA030E0EF057
:10305000004170BD00F01CF88900013E00F007B887
:1030600000F009B84FEA430C5FEA5C5C08D081EAE3
:10307000030100F05BB84FEA410C5FEA5C5CF6D1FB
:103080004FF00000014970470000FF070000F87F83
:103090000EF1020E2EF0030E5EF8046B364205D4DC
:1030A000012A43EB030515F5001F12D8012841EB57
:1030B000010C1CF5001F0CD80ED14FEAD17C15F580
:1030C000001F0CEB4C0C0CF1020C08BF4CEBD37C3A
:1030D00004E04FF0080C01E04FEAD37C0CEB4C0508
:1030E00026FA05F606F00706B6F1040C06D20EEB3A
:1030F000860CBDE870404CF0010C6047DFE80CF036
:10310000090B02024FF000414FF00000A1F5002131
:1031100070BD19461046012851EB010418BFD4F5C3
:10312000001484BF002001F0004170BD0808A0F524
:1031300000114FEA3101704710B591EA030F48BF03
:1031400083F000433FF500AE841A71EB030C07D205
:1031500012198CF0004C43EB0C03001B61EB0C01CB
:10316000DFF8A4E14FEA1154A4EB135C1EEA430F0D
:1031700018BF9EEA445F00F0B08023EA6E0352421B
:1031800021EA0451C3EB6E0338BF5B1EDCF1200E55
:1031900025D322FA0CFE10EB0E0043FA0CFE41EB95
:1031A0000E01CCF1200E03FA0EFE10EB0E0051F1D1
:1031B0000001CCF1200E29D412FA0EF201EB0451D9
:1031C000BDE8104058BF7047401C1CBFB2F1004F13
:1031D000704700280CBF491C20F00100704712EB1B
:1031E000020E43EB030218BF4FF0010E4EEA4202FB
:1031F000ACF1200CDCF11E0E54D943FA0CFE10EB9E
:103200000E0051F1FF31CCF11E0ED5D50EF1010E9D
:1032100012FA0EFE404141EB010101EB445C5FEA12
:103220005C5C10D910EBDE7001EB045138BFBEF1CD
:10323000004FBDE8104018BF704700280CBF491C64
:1032400020F00100704730D24FEAD42C11F5001164
:1032500024F400641BD0B1FA81F20B3AA41AA41E24
:10326000D2F12003914030FA03F31943904001EB6F
:10327000CC71002C01EB0451BDE81040A8BF704791
:1032800001F1C0414FF0000001F000417047B0FA79
:1032900080F310FA03F100D110BDE41A173C480581
:1032A000C90AE4E701EB045110BD491001EB0451D8
:1032B000BDE810404FEA300002E04FF000017047D7
:1032C0004A0008BF0042F8D0B2F5001F28BF70477F
:1032D00001F000414FF0000070479EEA445F07D0C4
:1032E00011EA5E0FBDE8104004BF002100207047C6
:1032F000BDE8104070B5FFF7CBFE00BF40DFF63EE3
:1033000083F00041104670470000E0FF4FF040702E
:10331000E1EE100A70470000000000007AA9FFFFEC
:10332000FE7AFFFF206DFFFF000000004C33000815
:103330000000002080000000BC010008CC33000821
:1033400080000020080D0000D801000800000000E7
:103350000300000000000000FF00000000000E0855
:10336000000000000000000000000000000000005D
:10337000000000000000000000000000000000004D
:1033800000000000FFFFFFFF000000000000000041
:10339000000000000100000000000000000000002C
:1033A000000000000000AA00A401680196000000CF
:1033B0000000000000000000060280040000000081
:0C33C00000000000000000000000000001
:0400000508000221CC
:00000001FF
